:060000000A128A11122809
:10000800FE00030E83120313B0000408B1000A08AF
:10001800B2007F08B3000A128A11552A0A128A11FF
:1000280015288313BE30FD000430FE006B30FF003E
:10003800A03084000A128A1102250A128A11693036
:10004800FD000530FE005430FF00633084000A12C2
:100058008A1102250A128A11831790308400C2304F
:100068000A128A1127250A128A118313D7308400AD
:10007800E7300A128A1127250A128A11593084009A
:1000880063300A128A11272583010A128A11F22A7B
:1000980083120313A500033083120313A2008A30CE
:1000A800A1005530A000A00B5728A10B5728A20B80
:1000B800572883120313A301A40125080A128A11E1
:1000C800B4210A128A11710883120313A40070085C
:1000D800A3000130D9000030DA00FF30E100A000B1
:1000E8002008E200DB01DC010130DF000030E00025
:1000F800DD01DE01A601A701003027021B3003192C
:10010800260203189C287E300A128A11BB230A1281
:100118008A11013083120313A6070318A70A0030B7
:10012800A707003027021B3003192602031C872863
:10013800DF01E001A801A90124082902031DA6285E
:10014800230828020318BB282808903E8400831738
:1001580000080A128A11BB230A128A11013083127D
:100168000313A8070318A90A0030A907A02801301B
:10017800DD000030DE00E209E10962080A128A1196
:10018800BB230A128A118312031361080A128A1107
:10019800BB230A128A1183120313DD01DE01013029
:1001A800DF000030E000AA01AB0100302B0206306E
:1001B80003192A020318F5287E300A128A11BB2374
:1001C8000A128A11013083120313AA070318AB0A13
:1001D8000030AB0700302B02063003192A02031C3B
:1001E800E028033083120313A2008A30A10055309F
:1001F800A000A00BFD28A10BFD28A20BFD280800DC
:1002080083120313A0002008F7007707F800780886
:10021800A40024080138F7007708A1000A128A11FF
:1002280046250A128A11831203132408F700F801DD
:100238007708F0007808F1000A128A1137250A12A7
:100248008A117308F700F8017708F0007808F100C0
:100258000A128A1137250A128A117408F700F80160
:100268007708F0007808F1000A128A1137250A1277
:100278008A110A128A114D250A128A118312031350
:100288002108F700F8017708F0007808F1000A1251
:100298008A1137250A128A1176088400831380018F
:1002A800840A80017608840000087507F70077083B
:1002B80084000008031965290230F7007708F6075B
:1002C800562983120313A201A301760884000008AB
:1002D800F700840A0008F80078082302031D76292D
:1002E800770822020318902901300A128A1145243E
:1002F8000A128A11F7008312031322087507F800FF
:10030800780884007708831380000130A207031857
:10031800A30A0030A307692900300A128A1145246C
:100328000A128A11F70076088400831300087507FB
:10033800F80078088400770880000A128A113F259F
:100348000A128A110330F9008A30F8005530F70094
:10035800F70BAC29F80BAC29F90BAC29B329080029
:10036800F400F901FA0100307A0206300319790223
:100378000318DC297908013E84000A128A11D8245E
:100388000A128A11F2007207F3007908903E84007D
:100398007308831780000130F9070318FA0A003040
:1003A800FA0700307A02063003197902031CBE29C5
:1003B8006030F2007208831603179600FB01FC01F7
:1003C80000307C02063003197B0203180A2A7B08D6
:1003D800083E84000A128A11D8240A128A11F200EF
:1003E8007207F3007B08073E903E8400730883176A
:1003F80080000130FB070318FC0A0030FC070030BE
:100408007C02063003197B02031CEB29E130F20061
:100418007208831603179D000330F20072089E00CD
:10042800F030F20072089F00F701F801F701F801B7
:1004380077087407F2007208840083130008031910
:100448002C2A0130F7070318F80A0030F8071C2A8D
:10045800F501F60178087602031D342A770875023B
:1004680003184C2A75087407F20072088400831375
:100478000008F3007508103E903E84007308831747
:1004880080000130F5070318F60A0030F6072E2A17
:100498007708103EF00078080318013E003EF1008E
:1004A80008008C1EE72A0A128A110F250A128A11DF
:1004B80083120313AC002C08B40034080A128A1102
:1004C8002F250A128A117430831203133406031D70
:1004D800E62A86140A128A110F250A128A11831233
:1004E8000313AC002C08B5000A128A110F250A1252
:1004F8008A1183120313AC002C08B6008C12033047
:1005080083120313AE008A30AD005530AC00AC0B3B
:100518008B2AAD0B8B2AAE0B8B2A8312031335085B
:10052800AC002C08F3003608AD002D08F400583054
:10053800AE002E08F5005430AF002F08F6005030FA
:100548000A128A1104210A128A118312031307144A
:100558008611D601D7015708803AFF0080307F0204
:10056800031DB82A053056020318E12A58300A122A
:100578008A114C200A128A11033083120313AE0029
:100588008A30AD005530AC00AC0BC82AAD0BC82A78
:10059800AE0BC82A013083120313D6070318D70AF3
:1005A8000030D7075708803AFF0080307F02031DCC
:1005B800DF2A05305602031CBA2A831203130710D8
:1005C8008610E72A8C123308FF0032088A003108A7
:1005D8008400300E8300FE0E7E0E09000D30831657
:1005E8000313D600AF30D500B530D400D40BFA2AA7
:1005F800D50BFA2AD60BFA2A012B0A128A1189245A
:100608000A128A110A128A11A4240A128A110030C5
:1006180083160313CF000630CE001A30CD00803089
:10062800CC000A128A1113240A128A11472B0714C4
:100638008611033083160313D6008A30D50055304F
:10064800D400D40B252BD50B252BD60B252B03300B
:1006580083160313D6008A30D5005530D400D40B46
:10066800332BD50B332BD60B332B033083160313C5
:10067800D6008A30D5005530D400D40B412BD50B89
:10068800412BD60B412B033083160313D6008A3037
:10069800D5005530D400D40B4F2BD50B4F2BD60B90
:1006A8004F2B8312031307191B2B0710472B0030FE
:1006B80083160313CA000030C9000030C800003098
:1006C800C700410840043F043E040319B22BCB0184
:1006D800CB0AC11B7D2B0130C6000310BE0DBF0D18
:1006E800C00DC10DC60B712B0130C6004608CB07E3
:1006F8006D2B0130C6000310C70DC80DC90DCA0DFA
:10070800C60B7F2B41084502031D942B4008440269
:10071800031D942B3F084302031D942B3E084202FD
:10072800031CA52B3E08C2023F08031C3F0FC3024F
:100738004008031C400FC4024108031C410FC502B6
:10074800471401300310C10CC00CBF0CBE0CFF3E97
:10075800031DA62B0130CB02031D7D2B4A08C100C7
:100768004908C0004808BF004708BE000800F70055
:10077800F501F601003076020830031975020318F6
:10078800080077080139F3007308F800831203138F
:100798005D085E04031DDA2B5F086004031DDA2B75
:1007A80078080A128A11BE240A128A1178080319D5
:1007B800F72B013083120313DB070318DC0A003020
:1007C800DC075F086004031DFC2B05305B065C0436
:1007D800031DFC2B0330F4009330F300F30BF22BD2
:1007E800F40BF22B00000A128A11EC240A128A1167
:1007F8000330F4009330F300F30B002CF40B002CBF
:1008080000007708F3000310730CF4007408F70075
:100818000130F5070318F60A0030F607BE2B28301A
:100828008312031394008316031391014C08D0001C
:100838004D08D1004E08D2004F08D30002300310F3
:10084800D00DD10DD20DD30DFF3E031D232C53081F
:10085800C1005208C0005108BF005008BE00003057
:10086800C5009830C4009630C3008030C2000A1218
:100878008A115B23831603133E08FF3E93009401FD
:100888000800F1000A128A111E250A128A1183161D
:10089800031391150A128A111E250A128A1183124E
:1008A80003131308F0007008F2000A128A111E25BB
:1008B8000A128A117108031D652C831603139116F9
:1008C800682C83160313911211167208080002345B
:1008D8000034043400340834003408340034073455
:1008E8000034003400340134003407340034043454
:1008F8000034073400340834003407340034033437
:10090800003400340034003400340A3083160313F2
:1009180099008B170B1718111812831203139817C5
:10092800181698128C12831603130C128C161813AF
:1009380083120313181383160313981298160800CA
:100948008312031385018601870189018316031722
:1009580088018901803083160313850010308600D2
:100968005C308700890183120313850186018701A2
:1009780089010800F2000310E10CE20C0130831237
:1009880003130305F00072087006F1007103031DDC
:1009980008006108843AF0007008E1006208083A2B
:1009A800F0007008E200080004308A000408840A95
:1009B800820700344A34513431345A344834583474
:1009C80000344A3451343134593443345A340034BD
:1009D80083120313DB01DC0159085A04031DFA2CA6
:1009E80087160130D9000030DA0008008712D901D3
:1009F800DA0108007E088A007F088200FE240A12B5
:100A08008A118000840A04087D0603190034FF0A4D
:100A18000319FE0A022D831203131819152D981CA9
:100A28001A2D181200008312031318168C1E1A2D83
:100A38001A0808008316031314191E2D11081F39EC
:100A4800031908001E2D64008001840A0406031996
:100A580000340406282DF000831203130C1E302DD9
:100A68007008990008000A128A111E25700883125E
:100A78000313930008000A128A111E258316031314
:100A8800111508000A128A111E2583160313111462
:100A980008000A128A111E258316031391140800F0
:0C0AA80000340A34A034003400340A3456
:04400E00E2E0FFFFEE
:00000001FF
